{
  "_format": "hh-sol-artifact-1",
  "contractName": "BasicNFT",
  "sourceName": "contracts/BasicNFT.sol",
  "abi": [
    {
      "inputs": [
        {
          "internalType": "uint256",
          "name": "amount",
          "type": "uint256"
        },
        {
          "internalType": "string",
          "name": "songName",
          "type": "string"
        },
        {
          "internalType": "string",
          "name": "songSymbol",
          "type": "string"
        }
      ],
      "stateMutability": "nonpayable",
      "type": "constructor"
    },
    {
      "anonymous": false,
      "inputs": [
        {
          "indexed": true,
          "internalType": "address",
          "name": "owner",
          "type": "address"
        },
        {
          "indexed": true,
          "internalType": "address",
          "name": "approved",
          "type": "address"
        },
        {
          "indexed": true,
          "internalType": "uint256",
          "name": "tokenId",
          "type": "uint256"
        }
      ],
      "name": "Approval",
      "type": "event"
    },
    {
      "anonymous": false,
      "inputs": [
        {
          "indexed": true,
          "internalType": "address",
          "name": "owner",
          "type": "address"
        },
        {
          "indexed": true,
          "internalType": "address",
          "name": "operator",
          "type": "address"
        },
        {
          "indexed": false,
          "internalType": "bool",
          "name": "approved",
          "type": "bool"
        }
      ],
      "name": "ApprovalForAll",
      "type": "event"
    },
    {
      "anonymous": false,
      "inputs": [
        {
          "indexed": true,
          "internalType": "address",
          "name": "previousOwner",
          "type": "address"
        },
        {
          "indexed": true,
          "internalType": "address",
          "name": "newOwner",
          "type": "address"
        }
      ],
      "name": "OwnershipTransferred",
      "type": "event"
    },
    {
      "anonymous": false,
      "inputs": [
        {
          "indexed": true,
          "internalType": "address",
          "name": "from",
          "type": "address"
        },
        {
          "indexed": true,
          "internalType": "address",
          "name": "to",
          "type": "address"
        },
        {
          "indexed": true,
          "internalType": "uint256",
          "name": "tokenId",
          "type": "uint256"
        }
      ],
      "name": "Transfer",
      "type": "event"
    },
    {
      "inputs": [],
      "name": "TOKEN_URI",
      "outputs": [
        {
          "internalType": "string",
          "name": "",
          "type": "string"
        }
      ],
      "stateMutability": "view",
      "type": "function"
    },
    {
      "inputs": [
        {
          "internalType": "address",
          "name": "to",
          "type": "address"
        },
        {
          "internalType": "uint256",
          "name": "tokenId",
          "type": "uint256"
        }
      ],
      "name": "approve",
      "outputs": [],
      "stateMutability": "nonpayable",
      "type": "function"
    },
    {
      "inputs": [
        {
          "internalType": "address",
          "name": "owner",
          "type": "address"
        }
      ],
      "name": "balanceOf",
      "outputs": [
        {
          "internalType": "uint256",
          "name": "",
          "type": "uint256"
        }
      ],
      "stateMutability": "view",
      "type": "function"
    },
    {
      "inputs": [
        {
          "internalType": "uint256",
          "name": "tokenId",
          "type": "uint256"
        }
      ],
      "name": "getApproved",
      "outputs": [
        {
          "internalType": "address",
          "name": "",
          "type": "address"
        }
      ],
      "stateMutability": "view",
      "type": "function"
    },
    {
      "inputs": [
        {
          "internalType": "address",
          "name": "owner",
          "type": "address"
        },
        {
          "internalType": "address",
          "name": "operator",
          "type": "address"
        }
      ],
      "name": "isApprovedForAll",
      "outputs": [
        {
          "internalType": "bool",
          "name": "",
          "type": "bool"
        }
      ],
      "stateMutability": "view",
      "type": "function"
    },
    {
      "inputs": [],
      "name": "name",
      "outputs": [
        {
          "internalType": "string",
          "name": "",
          "type": "string"
        }
      ],
      "stateMutability": "view",
      "type": "function"
    },
    {
      "inputs": [],
      "name": "owner",
      "outputs": [
        {
          "internalType": "address",
          "name": "",
          "type": "address"
        }
      ],
      "stateMutability": "view",
      "type": "function"
    },
    {
      "inputs": [
        {
          "internalType": "uint256",
          "name": "tokenId",
          "type": "uint256"
        }
      ],
      "name": "ownerOf",
      "outputs": [
        {
          "internalType": "address",
          "name": "",
          "type": "address"
        }
      ],
      "stateMutability": "view",
      "type": "function"
    },
    {
      "inputs": [],
      "name": "renounceOwnership",
      "outputs": [],
      "stateMutability": "nonpayable",
      "type": "function"
    },
    {
      "inputs": [
        {
          "internalType": "address",
          "name": "from",
          "type": "address"
        },
        {
          "internalType": "address",
          "name": "to",
          "type": "address"
        },
        {
          "internalType": "uint256",
          "name": "tokenId",
          "type": "uint256"
        }
      ],
      "name": "safeTransferFrom",
      "outputs": [],
      "stateMutability": "nonpayable",
      "type": "function"
    },
    {
      "inputs": [
        {
          "internalType": "address",
          "name": "from",
          "type": "address"
        },
        {
          "internalType": "address",
          "name": "to",
          "type": "address"
        },
        {
          "internalType": "uint256",
          "name": "tokenId",
          "type": "uint256"
        },
        {
          "internalType": "bytes",
          "name": "data",
          "type": "bytes"
        }
      ],
      "name": "safeTransferFrom",
      "outputs": [],
      "stateMutability": "nonpayable",
      "type": "function"
    },
    {
      "inputs": [
        {
          "internalType": "address",
          "name": "operator",
          "type": "address"
        },
        {
          "internalType": "bool",
          "name": "approved",
          "type": "bool"
        }
      ],
      "name": "setApprovalForAll",
      "outputs": [],
      "stateMutability": "nonpayable",
      "type": "function"
    },
    {
      "inputs": [
        {
          "internalType": "bytes4",
          "name": "interfaceId",
          "type": "bytes4"
        }
      ],
      "name": "supportsInterface",
      "outputs": [
        {
          "internalType": "bool",
          "name": "",
          "type": "bool"
        }
      ],
      "stateMutability": "view",
      "type": "function"
    },
    {
      "inputs": [],
      "name": "symbol",
      "outputs": [
        {
          "internalType": "string",
          "name": "",
          "type": "string"
        }
      ],
      "stateMutability": "view",
      "type": "function"
    },
    {
      "inputs": [
        {
          "internalType": "uint256",
          "name": "tokenId",
          "type": "uint256"
        }
      ],
      "name": "tokenURI",
      "outputs": [
        {
          "internalType": "string",
          "name": "",
          "type": "string"
        }
      ],
      "stateMutability": "view",
      "type": "function"
    },
    {
      "inputs": [
        {
          "internalType": "address",
          "name": "from",
          "type": "address"
        },
        {
          "internalType": "address",
          "name": "to",
          "type": "address"
        },
        {
          "internalType": "uint256",
          "name": "tokenId",
          "type": "uint256"
        }
      ],
      "name": "transferFrom",
      "outputs": [],
      "stateMutability": "nonpayable",
      "type": "function"
    },
    {
      "inputs": [
        {
          "internalType": "address",
          "name": "newOwner",
          "type": "address"
        }
      ],
      "name": "transferOwnership",
      "outputs": [],
      "stateMutability": "nonpayable",
      "type": "function"
    }
  ],
  "bytecode": "0x60806040523480156200001157600080fd5b50604051620033fb380380620033fb8339818101604052810190620000379190620008df565b818181600090805190602001906200005192919062000657565b5080600190805190602001906200006a92919062000657565b5050506200008d62000081620000a860201b60201c565b620000b060201b60201c565b6200009f33846200017660201b60201c565b50505062000d8d565b600033905090565b6000600760009054906101000a900473ffffffffffffffffffffffffffffffffffffffff16905081600760006101000a81548173ffffffffffffffffffffffffffffffffffffffff021916908373ffffffffffffffffffffffffffffffffffffffff1602179055508173ffffffffffffffffffffffffffffffffffffffff168173ffffffffffffffffffffffffffffffffffffffff167f8be0079c531659141344cd1fd0a4f28419497f9722a3daafe3b4186f6b6457e060405160405180910390a35050565b620001988282604051806020016040528060008152506200019c60201b60201c565b5050565b620001ae83836200020a60201b60201c565b620001c360008484846200040460201b60201c565b62000205576040517f08c379a0000000000000000000000000000000000000000000000000000000008152600401620001fc9062000a00565b60405180910390fd5b505050565b600073ffffffffffffffffffffffffffffffffffffffff168273ffffffffffffffffffffffffffffffffffffffff1614156200027d576040517f08c379a0000000000000000000000000000000000000000000000000000000008152600401620002749062000a72565b60405180910390fd5b6200028e81620005be60201b60201c565b15620002d1576040517f08c379a0000000000000000000000000000000000000000000000000000000008152600401620002c89062000ae4565b60405180910390fd5b620002e5600083836200062a60201b60201c565b6001600360008473ffffffffffffffffffffffffffffffffffffffff1673ffffffffffffffffffffffffffffffffffffffff168152602001908152602001600020600082825462000337919062000b35565b92505081905550816002600083815260200190815260200160002060006101000a81548173ffffffffffffffffffffffffffffffffffffffff021916908373ffffffffffffffffffffffffffffffffffffffff160217905550808273ffffffffffffffffffffffffffffffffffffffff16600073ffffffffffffffffffffffffffffffffffffffff167fddf252ad1be2c89b69c2b068fc378daa952ba7f163c4a11628f55a4df523b3ef60405160405180910390a462000400600083836200062f60201b60201c565b5050565b6000620004328473ffffffffffffffffffffffffffffffffffffffff166200063460201b62000b9c1760201c565b15620005b1578373ffffffffffffffffffffffffffffffffffffffff1663150b7a0262000464620000a860201b60201c565b8786866040518563ffffffff1660e01b815260040162000488949392919062000c45565b602060405180830381600087803b158015620004a357600080fd5b505af1925050508015620004d757506040513d601f19601f82011682018060405250810190620004d4919062000cf6565b60015b62000560573d80600081146200050a576040519150601f19603f3d011682016040523d82523d6000602084013e6200050f565b606091505b5060008151141562000558576040517f08c379a00000000000000000000000000000000000000000000000000000000081526004016200054f9062000a00565b60405180910390fd5b805181602001fd5b63150b7a0260e01b7bffffffffffffffffffffffffffffffffffffffffffffffffffffffff1916817bffffffffffffffffffffffffffffffffffffffffffffffffffffffff191614915050620005b6565b600190505b949350505050565b60008073ffffffffffffffffffffffffffffffffffffffff166002600084815260200190815260200160002060009054906101000a900473ffffffffffffffffffffffffffffffffffffffff1673ffffffffffffffffffffffffffffffffffffffff1614159050919050565b505050565b505050565b6000808273ffffffffffffffffffffffffffffffffffffffff163b119050919050565b828054620006659062000d57565b90600052602060002090601f016020900481019282620006895760008555620006d5565b82601f10620006a457805160ff1916838001178555620006d5565b82800160010185558215620006d5579182015b82811115620006d4578251825591602001919060010190620006b7565b5b509050620006e49190620006e8565b5090565b5b8082111562000703576000816000905550600101620006e9565b5090565b6000604051905090565b600080fd5b600080fd5b6000819050919050565b62000730816200071b565b81146200073c57600080fd5b50565b600081519050620007508162000725565b92915050565b600080fd5b600080fd5b6000601f19601f8301169050919050565b7f4e487b7100000000000000000000000000000000000000000000000000000000600052604160045260246000fd5b620007ab8262000760565b810181811067ffffffffffffffff82111715620007cd57620007cc62000771565b5b80604052505050565b6000620007e262000707565b9050620007f08282620007a0565b919050565b600067ffffffffffffffff82111562000813576200081262000771565b5b6200081e8262000760565b9050602081019050919050565b60005b838110156200084b5780820151818401526020810190506200082e565b838111156200085b576000848401525b50505050565b6000620008786200087284620007f5565b620007d6565b9050828152602081018484840111156200089757620008966200075b565b5b620008a48482856200082b565b509392505050565b600082601f830112620008c457620008c362000756565b5b8151620008d684826020860162000861565b91505092915050565b600080600060608486031215620008fb57620008fa62000711565b5b60006200090b868287016200073f565b935050602084015167ffffffffffffffff8111156200092f576200092e62000716565b5b6200093d86828701620008ac565b925050604084015167ffffffffffffffff81111562000961576200096062000716565b5b6200096f86828701620008ac565b9150509250925092565b600082825260208201905092915050565b7f4552433732313a207472616e7366657220746f206e6f6e20455243373231526560008201527f63656976657220696d706c656d656e7465720000000000000000000000000000602082015250565b6000620009e860328362000979565b9150620009f5826200098a565b604082019050919050565b6000602082019050818103600083015262000a1b81620009d9565b9050919050565b7f4552433732313a206d696e7420746f20746865207a65726f2061646472657373600082015250565b600062000a5a60208362000979565b915062000a678262000a22565b602082019050919050565b6000602082019050818103600083015262000a8d8162000a4b565b9050919050565b7f4552433732313a20746f6b656e20616c7265616479206d696e74656400000000600082015250565b600062000acc601c8362000979565b915062000ad98262000a94565b602082019050919050565b6000602082019050818103600083015262000aff8162000abd565b9050919050565b7f4e487b7100000000000000000000000000000000000000000000000000000000600052601160045260246000fd5b600062000b42826200071b565b915062000b4f836200071b565b9250827fffffffffffffffffffffffffffffffffffffffffffffffffffffffffffffffff0382111562000b875762000b8662000b06565b5b828201905092915050565b600073ffffffffffffffffffffffffffffffffffffffff82169050919050565b600062000bbf8262000b92565b9050919050565b62000bd18162000bb2565b82525050565b62000be2816200071b565b82525050565b600081519050919050565b600082825260208201905092915050565b600062000c118262000be8565b62000c1d818562000bf3565b935062000c2f8185602086016200082b565b62000c3a8162000760565b840191505092915050565b600060808201905062000c5c600083018762000bc6565b62000c6b602083018662000bc6565b62000c7a604083018562000bd7565b818103606083015262000c8e818462000c04565b905095945050505050565b60007fffffffff0000000000000000000000000000000000000000000000000000000082169050919050565b62000cd08162000c99565b811462000cdc57600080fd5b50565b60008151905062000cf08162000cc5565b92915050565b60006020828403121562000d0f5762000d0e62000711565b5b600062000d1f8482850162000cdf565b91505092915050565b7f4e487b7100000000000000000000000000000000000000000000000000000000600052602260045260246000fd5b6000600282049050600182168062000d7057607f821691505b6020821081141562000d875762000d8662000d28565b5b50919050565b61265e8062000d9d6000396000f3fe608060405234801561001057600080fd5b506004361061010b5760003560e01c8063715018a6116100a2578063a22cb46511610071578063a22cb465146102a6578063b88d4fde146102c2578063c87b56dd146102de578063e985e9c51461030e578063f2fde38b1461033e5761010b565b8063715018a61461024257806378ce90351461024c5780638da5cb5b1461026a57806395d89b41146102885761010b565b806323b872dd116100de57806323b872dd146101aa57806342842e0e146101c65780636352211e146101e257806370a08231146102125761010b565b806301ffc9a71461011057806306fdde0314610140578063081812fc1461015e578063095ea7b31461018e575b600080fd5b61012a60048036038101906101259190611797565b61035a565b60405161013791906117df565b60405180910390f35b61014861043c565b6040516101559190611893565b60405180910390f35b610178600480360381019061017391906118eb565b6104ce565b6040516101859190611959565b60405180910390f35b6101a860048036038101906101a391906119a0565b610514565b005b6101c460048036038101906101bf91906119e0565b61062c565b005b6101e060048036038101906101db91906119e0565b61068c565b005b6101fc60048036038101906101f791906118eb565b6106ac565b6040516102099190611959565b60405180910390f35b61022c60048036038101906102279190611a33565b61075e565b6040516102399190611a6f565b60405180910390f35b61024a610816565b005b61025461082a565b6040516102619190611893565b60405180910390f35b61027261083d565b60405161027f9190611959565b60405180910390f35b610290610867565b60405161029d9190611893565b60405180910390f35b6102c060048036038101906102bb9190611ab6565b6108f9565b005b6102dc60048036038101906102d79190611c2b565b61090f565b005b6102f860048036038101906102f391906118eb565b610971565b6040516103059190611893565b60405180910390f35b61032860048036038101906103239190611cae565b610a84565b60405161033591906117df565b60405180910390f35b61035860048036038101906103539190611a33565b610b18565b005b60007f80ac58cd000000000000000000000000000000000000000000000000000000007bffffffffffffffffffffffffffffffffffffffffffffffffffffffff1916827bffffffffffffffffffffffffffffffffffffffffffffffffffffffff1916148061042557507f5b5e139f000000000000000000000000000000000000000000000000000000007bffffffffffffffffffffffffffffffffffffffffffffffffffffffff1916827bffffffffffffffffffffffffffffffffffffffffffffffffffffffff1916145b80610435575061043482610bbf565b5b9050919050565b60606000805461044b90611d1d565b80601f016020809104026020016040519081016040528092919081815260200182805461047790611d1d565b80156104c45780601f10610499576101008083540402835291602001916104c4565b820191906000526020600020905b8154815290600101906020018083116104a757829003601f168201915b5050505050905090565b60006104d982610c29565b6004600083815260200190815260200160002060009054906101000a900473ffffffffffffffffffffffffffffffffffffffff169050919050565b600061051f826106ac565b90508073ffffffffffffffffffffffffffffffffffffffff168373ffffffffffffffffffffffffffffffffffffffff161415610590576040517f08c379a000000000000000000000000000000000000000000000000000000000815260040161058790611dc1565b60405180910390fd5b8073ffffffffffffffffffffffffffffffffffffffff166105af610c74565b73ffffffffffffffffffffffffffffffffffffffff1614806105de57506105dd816105d8610c74565b610a84565b5b61061d576040517f08c379a000000000000000000000000000000000000000000000000000000000815260040161061490611e53565b60405180910390fd5b6106278383610c7c565b505050565b61063d610637610c74565b82610d35565b61067c576040517f08c379a000000000000000000000000000000000000000000000000000000000815260040161067390611ee5565b60405180910390fd5b610687838383610dca565b505050565b6106a78383836040518060200160405280600081525061090f565b505050565b6000806002600084815260200190815260200160002060009054906101000a900473ffffffffffffffffffffffffffffffffffffffff169050600073ffffffffffffffffffffffffffffffffffffffff168173ffffffffffffffffffffffffffffffffffffffff161415610755576040517f08c379a000000000000000000000000000000000000000000000000000000000815260040161074c90611f51565b60405180910390fd5b80915050919050565b60008073ffffffffffffffffffffffffffffffffffffffff168273ffffffffffffffffffffffffffffffffffffffff1614156107cf576040517f08c379a00000000000000000000000000000000000000000000000000000000081526004016107c690611fe3565b60405180910390fd5b600360008373ffffffffffffffffffffffffffffffffffffffff1673ffffffffffffffffffffffffffffffffffffffff168152602001908152602001600020549050919050565b61081e611031565b61082860006110af565b565b6040518060200160405280600081525081565b6000600760009054906101000a900473ffffffffffffffffffffffffffffffffffffffff16905090565b60606001805461087690611d1d565b80601f01602080910402602001604051908101604052809291908181526020018280546108a290611d1d565b80156108ef5780601f106108c4576101008083540402835291602001916108ef565b820191906000526020600020905b8154815290600101906020018083116108d257829003601f168201915b5050505050905090565b61090b610904610c74565b8383611175565b5050565b61092061091a610c74565b83610d35565b61095f576040517f08c379a000000000000000000000000000000000000000000000000000000000815260040161095690611ee5565b60405180910390fd5b61096b848484846112e2565b50505050565b606061097c82610c29565b600060066000848152602001908152602001600020805461099c90611d1d565b80601f01602080910402602001604051908101604052809291908181526020018280546109c890611d1d565b8015610a155780601f106109ea57610100808354040283529160200191610a15565b820191906000526020600020905b8154815290600101906020018083116109f857829003601f168201915b505050505090506000610a2661133e565b9050600081511415610a3c578192505050610a7f565b600082511115610a71578082604051602001610a5992919061203f565b60405160208183030381529060405292505050610a7f565b610a7a84611355565b925050505b919050565b6000600560008473ffffffffffffffffffffffffffffffffffffffff1673ffffffffffffffffffffffffffffffffffffffff16815260200190815260200160002060008373ffffffffffffffffffffffffffffffffffffffff1673ffffffffffffffffffffffffffffffffffffffff16815260200190815260200160002060009054906101000a900460ff16905092915050565b610b20611031565b600073ffffffffffffffffffffffffffffffffffffffff168173ffffffffffffffffffffffffffffffffffffffff161415610b90576040517f08c379a0000000000000000000000000000000000000000000000000000000008152600401610b87906120d5565b60405180910390fd5b610b99816110af565b50565b6000808273ffffffffffffffffffffffffffffffffffffffff163b119050919050565b60007f01ffc9a7000000000000000000000000000000000000000000000000000000007bffffffffffffffffffffffffffffffffffffffffffffffffffffffff1916827bffffffffffffffffffffffffffffffffffffffffffffffffffffffff1916149050919050565b610c32816113bd565b610c71576040517f08c379a0000000000000000000000000000000000000000000000000000000008152600401610c6890611f51565b60405180910390fd5b50565b600033905090565b816004600083815260200190815260200160002060006101000a81548173ffffffffffffffffffffffffffffffffffffffff021916908373ffffffffffffffffffffffffffffffffffffffff160217905550808273ffffffffffffffffffffffffffffffffffffffff16610cef836106ac565b73ffffffffffffffffffffffffffffffffffffffff167f8c5be1e5ebec7d5bd14f71427d1e84f3dd0314c0f7b2291e5b200ac8c7c3b92560405160405180910390a45050565b600080610d41836106ac565b90508073ffffffffffffffffffffffffffffffffffffffff168473ffffffffffffffffffffffffffffffffffffffff161480610d835750610d828185610a84565b5b80610dc157508373ffffffffffffffffffffffffffffffffffffffff16610da9846104ce565b73ffffffffffffffffffffffffffffffffffffffff16145b91505092915050565b8273ffffffffffffffffffffffffffffffffffffffff16610dea826106ac565b73ffffffffffffffffffffffffffffffffffffffff1614610e40576040517f08c379a0000000000000000000000000000000000000000000000000000000008152600401610e3790612167565b60405180910390fd5b600073ffffffffffffffffffffffffffffffffffffffff168273ffffffffffffffffffffffffffffffffffffffff161415610eb0576040517f08c379a0000000000000000000000000000000000000000000000000000000008152600401610ea7906121f9565b60405180910390fd5b610ebb838383611429565b610ec6600082610c7c565b6001600360008573ffffffffffffffffffffffffffffffffffffffff1673ffffffffffffffffffffffffffffffffffffffff1681526020019081526020016000206000828254610f169190612248565b925050819055506001600360008473ffffffffffffffffffffffffffffffffffffffff1673ffffffffffffffffffffffffffffffffffffffff1681526020019081526020016000206000828254610f6d919061227c565b92505081905550816002600083815260200190815260200160002060006101000a81548173ffffffffffffffffffffffffffffffffffffffff021916908373ffffffffffffffffffffffffffffffffffffffff160217905550808273ffffffffffffffffffffffffffffffffffffffff168473ffffffffffffffffffffffffffffffffffffffff167fddf252ad1be2c89b69c2b068fc378daa952ba7f163c4a11628f55a4df523b3ef60405160405180910390a461102c83838361142e565b505050565b611039610c74565b73ffffffffffffffffffffffffffffffffffffffff1661105761083d565b73ffffffffffffffffffffffffffffffffffffffff16146110ad576040517f08c379a00000000000000000000000000000000000000000000000000000000081526004016110a49061231e565b60405180910390fd5b565b6000600760009054906101000a900473ffffffffffffffffffffffffffffffffffffffff16905081600760006101000a81548173ffffffffffffffffffffffffffffffffffffffff021916908373ffffffffffffffffffffffffffffffffffffffff1602179055508173ffffffffffffffffffffffffffffffffffffffff168173ffffffffffffffffffffffffffffffffffffffff167f8be0079c531659141344cd1fd0a4f28419497f9722a3daafe3b4186f6b6457e060405160405180910390a35050565b8173ffffffffffffffffffffffffffffffffffffffff168373ffffffffffffffffffffffffffffffffffffffff1614156111e4576040517f08c379a00000000000000000000000000000000000000000000000000000000081526004016111db9061238a565b60405180910390fd5b80600560008573ffffffffffffffffffffffffffffffffffffffff1673ffffffffffffffffffffffffffffffffffffffff16815260200190815260200160002060008473ffffffffffffffffffffffffffffffffffffffff1673ffffffffffffffffffffffffffffffffffffffff16815260200190815260200160002060006101000a81548160ff0219169083151502179055508173ffffffffffffffffffffffffffffffffffffffff168373ffffffffffffffffffffffffffffffffffffffff167f17307eab39ab6107e8899845ad3d59bd9653f200f220920489ca2b5937696c31836040516112d591906117df565b60405180910390a3505050565b6112ed848484610dca565b6112f984848484611433565b611338576040517f08c379a000000000000000000000000000000000000000000000000000000000815260040161132f9061241c565b60405180910390fd5b50505050565b606060405180602001604052806000815250905090565b606061136082610c29565b600061136a61133e565b9050600081511161138a57604051806020016040528060008152506113b5565b80611394846115ca565b6040516020016113a592919061203f565b6040516020818303038152906040525b915050919050565b60008073ffffffffffffffffffffffffffffffffffffffff166002600084815260200190815260200160002060009054906101000a900473ffffffffffffffffffffffffffffffffffffffff1673ffffffffffffffffffffffffffffffffffffffff1614159050919050565b505050565b505050565b60006114548473ffffffffffffffffffffffffffffffffffffffff16610b9c565b156115bd578373ffffffffffffffffffffffffffffffffffffffff1663150b7a0261147d610c74565b8786866040518563ffffffff1660e01b815260040161149f9493929190612491565b602060405180830381600087803b1580156114b957600080fd5b505af19250505080156114ea57506040513d601f19601f820116820180604052508101906114e791906124f2565b60015b61156d573d806000811461151a576040519150601f19603f3d011682016040523d82523d6000602084013e61151f565b606091505b50600081511415611565576040517f08c379a000000000000000000000000000000000000000000000000000000000815260040161155c9061241c565b60405180910390fd5b805181602001fd5b63150b7a0260e01b7bffffffffffffffffffffffffffffffffffffffffffffffffffffffff1916817bffffffffffffffffffffffffffffffffffffffffffffffffffffffff1916149150506115c2565b600190505b949350505050565b60606000821415611612576040518060400160405280600181526020017f30000000000000000000000000000000000000000000000000000000000000008152509050611726565b600082905060005b6000821461164457808061162d9061251f565b915050600a8261163d9190612597565b915061161a565b60008167ffffffffffffffff8111156116605761165f611b00565b5b6040519080825280601f01601f1916602001820160405280156116925781602001600182028036833780820191505090505b5090505b6000851461171f576001826116ab9190612248565b9150600a856116ba91906125c8565b60306116c6919061227c565b60f81b8183815181106116dc576116db6125f9565b5b60200101907effffffffffffffffffffffffffffffffffffffffffffffffffffffffffffff1916908160001a905350600a856117189190612597565b9450611696565b8093505050505b919050565b6000604051905090565b600080fd5b600080fd5b60007fffffffff0000000000000000000000000000000000000000000000000000000082169050919050565b6117748161173f565b811461177f57600080fd5b50565b6000813590506117918161176b565b92915050565b6000602082840312156117ad576117ac611735565b5b60006117bb84828501611782565b91505092915050565b60008115159050919050565b6117d9816117c4565b82525050565b60006020820190506117f460008301846117d0565b92915050565b600081519050919050565b600082825260208201905092915050565b60005b83811015611834578082015181840152602081019050611819565b83811115611843576000848401525b50505050565b6000601f19601f8301169050919050565b6000611865826117fa565b61186f8185611805565b935061187f818560208601611816565b61188881611849565b840191505092915050565b600060208201905081810360008301526118ad818461185a565b905092915050565b6000819050919050565b6118c8816118b5565b81146118d357600080fd5b50565b6000813590506118e5816118bf565b92915050565b60006020828403121561190157611900611735565b5b600061190f848285016118d6565b91505092915050565b600073ffffffffffffffffffffffffffffffffffffffff82169050919050565b600061194382611918565b9050919050565b61195381611938565b82525050565b600060208201905061196e600083018461194a565b92915050565b61197d81611938565b811461198857600080fd5b50565b60008135905061199a81611974565b92915050565b600080604083850312156119b7576119b6611735565b5b60006119c58582860161198b565b92505060206119d6858286016118d6565b9150509250929050565b6000806000606084860312156119f9576119f8611735565b5b6000611a078682870161198b565b9350506020611a188682870161198b565b9250506040611a29868287016118d6565b9150509250925092565b600060208284031215611a4957611a48611735565b5b6000611a578482850161198b565b91505092915050565b611a69816118b5565b82525050565b6000602082019050611a846000830184611a60565b92915050565b611a93816117c4565b8114611a9e57600080fd5b50565b600081359050611ab081611a8a565b92915050565b60008060408385031215611acd57611acc611735565b5b6000611adb8582860161198b565b9250506020611aec85828601611aa1565b9150509250929050565b600080fd5b600080fd5b7f4e487b7100000000000000000000000000000000000000000000000000000000600052604160045260246000fd5b611b3882611849565b810181811067ffffffffffffffff82111715611b5757611b56611b00565b5b80604052505050565b6000611b6a61172b565b9050611b768282611b2f565b919050565b600067ffffffffffffffff821115611b9657611b95611b00565b5b611b9f82611849565b9050602081019050919050565b82818337600083830152505050565b6000611bce611bc984611b7b565b611b60565b905082815260208101848484011115611bea57611be9611afb565b5b611bf5848285611bac565b509392505050565b600082601f830112611c1257611c11611af6565b5b8135611c22848260208601611bbb565b91505092915050565b60008060008060808587031215611c4557611c44611735565b5b6000611c538782880161198b565b9450506020611c648782880161198b565b9350506040611c75878288016118d6565b925050606085013567ffffffffffffffff811115611c9657611c9561173a565b5b611ca287828801611bfd565b91505092959194509250565b60008060408385031215611cc557611cc4611735565b5b6000611cd38582860161198b565b9250506020611ce48582860161198b565b9150509250929050565b7f4e487b7100000000000000000000000000000000000000000000000000000000600052602260045260246000fd5b60006002820490506001821680611d3557607f821691505b60208210811415611d4957611d48611cee565b5b50919050565b7f4552433732313a20617070726f76616c20746f2063757272656e74206f776e6560008201527f7200000000000000000000000000000000000000000000000000000000000000602082015250565b6000611dab602183611805565b9150611db682611d4f565b604082019050919050565b60006020820190508181036000830152611dda81611d9e565b9050919050565b7f4552433732313a20617070726f76652063616c6c6572206973206e6f7420746f60008201527f6b656e206f776e6572206e6f7220617070726f76656420666f7220616c6c0000602082015250565b6000611e3d603e83611805565b9150611e4882611de1565b604082019050919050565b60006020820190508181036000830152611e6c81611e30565b9050919050565b7f4552433732313a2063616c6c6572206973206e6f7420746f6b656e206f776e6560008201527f72206e6f7220617070726f766564000000000000000000000000000000000000602082015250565b6000611ecf602e83611805565b9150611eda82611e73565b604082019050919050565b60006020820190508181036000830152611efe81611ec2565b9050919050565b7f4552433732313a20696e76616c696420746f6b656e2049440000000000000000600082015250565b6000611f3b601883611805565b9150611f4682611f05565b602082019050919050565b60006020820190508181036000830152611f6a81611f2e565b9050919050565b7f4552433732313a2061646472657373207a65726f206973206e6f74206120766160008201527f6c6964206f776e65720000000000000000000000000000000000000000000000602082015250565b6000611fcd602983611805565b9150611fd882611f71565b604082019050919050565b60006020820190508181036000830152611ffc81611fc0565b9050919050565b600081905092915050565b6000612019826117fa565b6120238185612003565b9350612033818560208601611816565b80840191505092915050565b600061204b828561200e565b9150612057828461200e565b91508190509392505050565b7f4f776e61626c653a206e6577206f776e657220697320746865207a65726f206160008201527f6464726573730000000000000000000000000000000000000000000000000000602082015250565b60006120bf602683611805565b91506120ca82612063565b604082019050919050565b600060208201905081810360008301526120ee816120b2565b9050919050565b7f4552433732313a207472616e736665722066726f6d20696e636f72726563742060008201527f6f776e6572000000000000000000000000000000000000000000000000000000602082015250565b6000612151602583611805565b915061215c826120f5565b604082019050919050565b6000602082019050818103600083015261218081612144565b9050919050565b7f4552433732313a207472616e7366657220746f20746865207a65726f2061646460008201527f7265737300000000000000000000000000000000000000000000000000000000602082015250565b60006121e3602483611805565b91506121ee82612187565b604082019050919050565b60006020820190508181036000830152612212816121d6565b9050919050565b7f4e487b7100000000000000000000000000000000000000000000000000000000600052601160045260246000fd5b6000612253826118b5565b915061225e836118b5565b92508282101561227157612270612219565b5b828203905092915050565b6000612287826118b5565b9150612292836118b5565b9250827fffffffffffffffffffffffffffffffffffffffffffffffffffffffffffffffff038211156122c7576122c6612219565b5b828201905092915050565b7f4f776e61626c653a2063616c6c6572206973206e6f7420746865206f776e6572600082015250565b6000612308602083611805565b9150612313826122d2565b602082019050919050565b60006020820190508181036000830152612337816122fb565b9050919050565b7f4552433732313a20617070726f766520746f2063616c6c657200000000000000600082015250565b6000612374601983611805565b915061237f8261233e565b602082019050919050565b600060208201905081810360008301526123a381612367565b9050919050565b7f4552433732313a207472616e7366657220746f206e6f6e20455243373231526560008201527f63656976657220696d706c656d656e7465720000000000000000000000000000602082015250565b6000612406603283611805565b9150612411826123aa565b604082019050919050565b60006020820190508181036000830152612435816123f9565b9050919050565b600081519050919050565b600082825260208201905092915050565b60006124638261243c565b61246d8185612447565b935061247d818560208601611816565b61248681611849565b840191505092915050565b60006080820190506124a6600083018761194a565b6124b3602083018661194a565b6124c06040830185611a60565b81810360608301526124d28184612458565b905095945050505050565b6000815190506124ec8161176b565b92915050565b60006020828403121561250857612507611735565b5b6000612516848285016124dd565b91505092915050565b600061252a826118b5565b91507fffffffffffffffffffffffffffffffffffffffffffffffffffffffffffffffff82141561255d5761255c612219565b5b600182019050919050565b7f4e487b7100000000000000000000000000000000000000000000000000000000600052601260045260246000fd5b60006125a2826118b5565b91506125ad836118b5565b9250826125bd576125bc612568565b5b828204905092915050565b60006125d3826118b5565b91506125de836118b5565b9250826125ee576125ed612568565b5b828206905092915050565b7f4e487b7100000000000000000000000000000000000000000000000000000000600052603260045260246000fdfea264697066735822122032da01f96d819942f9c1bb79f88df8595333895cda484d40cbe6d323dbfaa32864736f6c63430008080033",
  "linkReferences": {},
  "deployedLinkReferences": {}
}