{
  "_format": "hh-sol-artifact-1",
  "contractName": "SongNFT",
  "sourceName": "contracts/BasicNFT.sol",
  "abi": [
    {
      "inputs": [
        {
          "internalType": "uint256",
          "name": "_amount",
          "type": "uint256"
        },
        {
          "internalType": "string",
          "name": "songName",
          "type": "string"
        },
        {
          "internalType": "string",
          "name": "songSymbol",
          "type": "string"
        }
      ],
      "stateMutability": "nonpayable",
      "type": "constructor"
    },
    {
      "anonymous": false,
      "inputs": [
        {
          "indexed": true,
          "internalType": "address",
          "name": "owner",
          "type": "address"
        },
        {
          "indexed": true,
          "internalType": "address",
          "name": "approved",
          "type": "address"
        },
        {
          "indexed": true,
          "internalType": "uint256",
          "name": "tokenId",
          "type": "uint256"
        }
      ],
      "name": "Approval",
      "type": "event"
    },
    {
      "anonymous": false,
      "inputs": [
        {
          "indexed": true,
          "internalType": "address",
          "name": "owner",
          "type": "address"
        },
        {
          "indexed": true,
          "internalType": "address",
          "name": "operator",
          "type": "address"
        },
        {
          "indexed": false,
          "internalType": "bool",
          "name": "approved",
          "type": "bool"
        }
      ],
      "name": "ApprovalForAll",
      "type": "event"
    },
    {
      "anonymous": false,
      "inputs": [
        {
          "indexed": true,
          "internalType": "address",
          "name": "previousOwner",
          "type": "address"
        },
        {
          "indexed": true,
          "internalType": "address",
          "name": "newOwner",
          "type": "address"
        }
      ],
      "name": "OwnershipTransferred",
      "type": "event"
    },
    {
      "anonymous": false,
      "inputs": [
        {
          "indexed": true,
          "internalType": "address",
          "name": "from",
          "type": "address"
        },
        {
          "indexed": true,
          "internalType": "address",
          "name": "to",
          "type": "address"
        },
        {
          "indexed": true,
          "internalType": "uint256",
          "name": "tokenId",
          "type": "uint256"
        }
      ],
      "name": "Transfer",
      "type": "event"
    },
    {
      "inputs": [],
      "name": "TOKEN_URI",
      "outputs": [
        {
          "internalType": "string",
          "name": "",
          "type": "string"
        }
      ],
      "stateMutability": "view",
      "type": "function"
    },
    {
      "inputs": [
        {
          "internalType": "address",
          "name": "to",
          "type": "address"
        },
        {
          "internalType": "uint256",
          "name": "tokenId",
          "type": "uint256"
        }
      ],
      "name": "approve",
      "outputs": [],
      "stateMutability": "nonpayable",
      "type": "function"
    },
    {
      "inputs": [
        {
          "internalType": "address",
          "name": "owner",
          "type": "address"
        }
      ],
      "name": "balanceOf",
      "outputs": [
        {
          "internalType": "uint256",
          "name": "",
          "type": "uint256"
        }
      ],
      "stateMutability": "view",
      "type": "function"
    },
    {
      "inputs": [
        {
          "internalType": "uint256",
          "name": "tokenId",
          "type": "uint256"
        }
      ],
      "name": "getApproved",
      "outputs": [
        {
          "internalType": "address",
          "name": "",
          "type": "address"
        }
      ],
      "stateMutability": "view",
      "type": "function"
    },
    {
      "inputs": [
        {
          "internalType": "address",
          "name": "owner",
          "type": "address"
        },
        {
          "internalType": "address",
          "name": "operator",
          "type": "address"
        }
      ],
      "name": "isApprovedForAll",
      "outputs": [
        {
          "internalType": "bool",
          "name": "",
          "type": "bool"
        }
      ],
      "stateMutability": "view",
      "type": "function"
    },
    {
      "inputs": [],
      "name": "name",
      "outputs": [
        {
          "internalType": "string",
          "name": "",
          "type": "string"
        }
      ],
      "stateMutability": "view",
      "type": "function"
    },
    {
      "inputs": [],
      "name": "owner",
      "outputs": [
        {
          "internalType": "address",
          "name": "",
          "type": "address"
        }
      ],
      "stateMutability": "view",
      "type": "function"
    },
    {
      "inputs": [
        {
          "internalType": "uint256",
          "name": "tokenId",
          "type": "uint256"
        }
      ],
      "name": "ownerOf",
      "outputs": [
        {
          "internalType": "address",
          "name": "",
          "type": "address"
        }
      ],
      "stateMutability": "view",
      "type": "function"
    },
    {
      "inputs": [],
      "name": "renounceOwnership",
      "outputs": [],
      "stateMutability": "nonpayable",
      "type": "function"
    },
    {
      "inputs": [
        {
          "internalType": "address",
          "name": "from",
          "type": "address"
        },
        {
          "internalType": "address",
          "name": "to",
          "type": "address"
        },
        {
          "internalType": "uint256",
          "name": "tokenId",
          "type": "uint256"
        }
      ],
      "name": "safeTransferFrom",
      "outputs": [],
      "stateMutability": "nonpayable",
      "type": "function"
    },
    {
      "inputs": [
        {
          "internalType": "address",
          "name": "from",
          "type": "address"
        },
        {
          "internalType": "address",
          "name": "to",
          "type": "address"
        },
        {
          "internalType": "uint256",
          "name": "tokenId",
          "type": "uint256"
        },
        {
          "internalType": "bytes",
          "name": "data",
          "type": "bytes"
        }
      ],
      "name": "safeTransferFrom",
      "outputs": [],
      "stateMutability": "nonpayable",
      "type": "function"
    },
    {
      "inputs": [
        {
          "internalType": "address",
          "name": "operator",
          "type": "address"
        },
        {
          "internalType": "bool",
          "name": "approved",
          "type": "bool"
        }
      ],
      "name": "setApprovalForAll",
      "outputs": [],
      "stateMutability": "nonpayable",
      "type": "function"
    },
    {
      "inputs": [
        {
          "internalType": "bytes4",
          "name": "interfaceId",
          "type": "bytes4"
        }
      ],
      "name": "supportsInterface",
      "outputs": [
        {
          "internalType": "bool",
          "name": "",
          "type": "bool"
        }
      ],
      "stateMutability": "view",
      "type": "function"
    },
    {
      "inputs": [],
      "name": "symbol",
      "outputs": [
        {
          "internalType": "string",
          "name": "",
          "type": "string"
        }
      ],
      "stateMutability": "view",
      "type": "function"
    },
    {
      "inputs": [
        {
          "internalType": "uint256",
          "name": "",
          "type": "uint256"
        }
      ],
      "name": "tokenId",
      "outputs": [
        {
          "internalType": "string",
          "name": "",
          "type": "string"
        }
      ],
      "stateMutability": "view",
      "type": "function"
    },
    {
      "inputs": [
        {
          "internalType": "uint256",
          "name": "tokenId",
          "type": "uint256"
        }
      ],
      "name": "tokenURI",
      "outputs": [
        {
          "internalType": "string",
          "name": "",
          "type": "string"
        }
      ],
      "stateMutability": "view",
      "type": "function"
    },
    {
      "inputs": [
        {
          "internalType": "address",
          "name": "from",
          "type": "address"
        },
        {
          "internalType": "address",
          "name": "to",
          "type": "address"
        },
        {
          "internalType": "uint256",
          "name": "tokenId",
          "type": "uint256"
        }
      ],
      "name": "transferFrom",
      "outputs": [],
      "stateMutability": "nonpayable",
      "type": "function"
    },
    {
      "inputs": [
        {
          "internalType": "address",
          "name": "newOwner",
          "type": "address"
        }
      ],
      "name": "transferOwnership",
      "outputs": [],
      "stateMutability": "nonpayable",
      "type": "function"
    }
  ],
  "bytecode": "0x60806040523480156200001157600080fd5b50604051620034a2380380620034a28339818101604052810190620000379190620008e6565b81818160009080519060200190620000519291906200065e565b5080600190805190602001906200006a9291906200065e565b5050506200008d62000081620000af60201b60201c565b620000b760201b60201c565b82600881905550620000a633846200017d60201b60201c565b50505062000d94565b600033905090565b6000600760009054906101000a900473ffffffffffffffffffffffffffffffffffffffff16905081600760006101000a81548173ffffffffffffffffffffffffffffffffffffffff021916908373ffffffffffffffffffffffffffffffffffffffff1602179055508173ffffffffffffffffffffffffffffffffffffffff168173ffffffffffffffffffffffffffffffffffffffff167f8be0079c531659141344cd1fd0a4f28419497f9722a3daafe3b4186f6b6457e060405160405180910390a35050565b6200019f828260405180602001604052806000815250620001a360201b60201c565b5050565b620001b583836200021160201b60201c565b620001ca60008484846200040b60201b60201c565b6200020c576040517f08c379a0000000000000000000000000000000000000000000000000000000008152600401620002039062000a07565b60405180910390fd5b505050565b600073ffffffffffffffffffffffffffffffffffffffff168273ffffffffffffffffffffffffffffffffffffffff16141562000284576040517f08c379a00000000000000000000000000000000000000000000000000000000081526004016200027b9062000a79565b60405180910390fd5b6200029581620005c560201b60201c565b15620002d8576040517f08c379a0000000000000000000000000000000000000000000000000000000008152600401620002cf9062000aeb565b60405180910390fd5b620002ec600083836200063160201b60201c565b6001600360008473ffffffffffffffffffffffffffffffffffffffff1673ffffffffffffffffffffffffffffffffffffffff16815260200190815260200160002060008282546200033e919062000b3c565b92505081905550816002600083815260200190815260200160002060006101000a81548173ffffffffffffffffffffffffffffffffffffffff021916908373ffffffffffffffffffffffffffffffffffffffff160217905550808273ffffffffffffffffffffffffffffffffffffffff16600073ffffffffffffffffffffffffffffffffffffffff167fddf252ad1be2c89b69c2b068fc378daa952ba7f163c4a11628f55a4df523b3ef60405160405180910390a462000407600083836200063660201b60201c565b5050565b6000620004398473ffffffffffffffffffffffffffffffffffffffff166200063b60201b62000c3c1760201c565b15620005b8578373ffffffffffffffffffffffffffffffffffffffff1663150b7a026200046b620000af60201b60201c565b8786866040518563ffffffff1660e01b81526004016200048f949392919062000c4c565b602060405180830381600087803b158015620004aa57600080fd5b505af1925050508015620004de57506040513d601f19601f82011682018060405250810190620004db919062000cfd565b60015b62000567573d806000811462000511576040519150601f19603f3d011682016040523d82523d6000602084013e62000516565b606091505b506000815114156200055f576040517f08c379a0000000000000000000000000000000000000000000000000000000008152600401620005569062000a07565b60405180910390fd5b805181602001fd5b63150b7a0260e01b7bffffffffffffffffffffffffffffffffffffffffffffffffffffffff1916817bffffffffffffffffffffffffffffffffffffffffffffffffffffffff191614915050620005bd565b600190505b949350505050565b60008073ffffffffffffffffffffffffffffffffffffffff166002600084815260200190815260200160002060009054906101000a900473ffffffffffffffffffffffffffffffffffffffff1673ffffffffffffffffffffffffffffffffffffffff1614159050919050565b505050565b505050565b6000808273ffffffffffffffffffffffffffffffffffffffff163b119050919050565b8280546200066c9062000d5e565b90600052602060002090601f016020900481019282620006905760008555620006dc565b82601f10620006ab57805160ff1916838001178555620006dc565b82800160010185558215620006dc579182015b82811115620006db578251825591602001919060010190620006be565b5b509050620006eb9190620006ef565b5090565b5b808211156200070a576000816000905550600101620006f0565b5090565b6000604051905090565b600080fd5b600080fd5b6000819050919050565b620007378162000722565b81146200074357600080fd5b50565b60008151905062000757816200072c565b92915050565b600080fd5b600080fd5b6000601f19601f8301169050919050565b7f4e487b7100000000000000000000000000000000000000000000000000000000600052604160045260246000fd5b620007b28262000767565b810181811067ffffffffffffffff82111715620007d457620007d362000778565b5b80604052505050565b6000620007e96200070e565b9050620007f78282620007a7565b919050565b600067ffffffffffffffff8211156200081a576200081962000778565b5b620008258262000767565b9050602081019050919050565b60005b838110156200085257808201518184015260208101905062000835565b8381111562000862576000848401525b50505050565b60006200087f6200087984620007fc565b620007dd565b9050828152602081018484840111156200089e576200089d62000762565b5b620008ab84828562000832565b509392505050565b600082601f830112620008cb57620008ca6200075d565b5b8151620008dd84826020860162000868565b91505092915050565b60008060006060848603121562000902576200090162000718565b5b6000620009128682870162000746565b935050602084015167ffffffffffffffff8111156200093657620009356200071d565b5b6200094486828701620008b3565b925050604084015167ffffffffffffffff8111156200096857620009676200071d565b5b6200097686828701620008b3565b9150509250925092565b600082825260208201905092915050565b7f4552433732313a207472616e7366657220746f206e6f6e20455243373231526560008201527f63656976657220696d706c656d656e7465720000000000000000000000000000602082015250565b6000620009ef60328362000980565b9150620009fc8262000991565b604082019050919050565b6000602082019050818103600083015262000a2281620009e0565b9050919050565b7f4552433732313a206d696e7420746f20746865207a65726f2061646472657373600082015250565b600062000a6160208362000980565b915062000a6e8262000a29565b602082019050919050565b6000602082019050818103600083015262000a948162000a52565b9050919050565b7f4552433732313a20746f6b656e20616c7265616479206d696e74656400000000600082015250565b600062000ad3601c8362000980565b915062000ae08262000a9b565b602082019050919050565b6000602082019050818103600083015262000b068162000ac4565b9050919050565b7f4e487b7100000000000000000000000000000000000000000000000000000000600052601160045260246000fd5b600062000b498262000722565b915062000b568362000722565b9250827fffffffffffffffffffffffffffffffffffffffffffffffffffffffffffffffff0382111562000b8e5762000b8d62000b0d565b5b828201905092915050565b600073ffffffffffffffffffffffffffffffffffffffff82169050919050565b600062000bc68262000b99565b9050919050565b62000bd88162000bb9565b82525050565b62000be98162000722565b82525050565b600081519050919050565b600082825260208201905092915050565b600062000c188262000bef565b62000c24818562000bfa565b935062000c3681856020860162000832565b62000c418162000767565b840191505092915050565b600060808201905062000c63600083018762000bcd565b62000c72602083018662000bcd565b62000c81604083018562000bde565b818103606083015262000c95818462000c0b565b905095945050505050565b60007fffffffff0000000000000000000000000000000000000000000000000000000082169050919050565b62000cd78162000ca0565b811462000ce357600080fd5b50565b60008151905062000cf78162000ccc565b92915050565b60006020828403121562000d165762000d1562000718565b5b600062000d268482850162000ce6565b91505092915050565b7f4e487b7100000000000000000000000000000000000000000000000000000000600052602260045260246000fd5b6000600282049050600182168062000d7757607f821691505b6020821081141562000d8e5762000d8d62000d2f565b5b50919050565b6126fe8062000da46000396000f3fe608060405234801561001057600080fd5b50600436106101165760003560e01c806378ce9035116100a2578063a22cb46511610071578063a22cb465146102e1578063b88d4fde146102fd578063c87b56dd14610319578063e985e9c514610349578063f2fde38b1461037957610116565b806378ce9035146102575780637dcb0e5f146102755780638da5cb5b146102a557806395d89b41146102c357610116565b806323b872dd116100e957806323b872dd146101b557806342842e0e146101d15780636352211e146101ed57806370a082311461021d578063715018a61461024d57610116565b806301ffc9a71461011b57806306fdde031461014b578063081812fc14610169578063095ea7b314610199575b600080fd5b61013560048036038101906101309190611837565b610395565b604051610142919061187f565b60405180910390f35b610153610477565b6040516101609190611933565b60405180910390f35b610183600480360381019061017e919061198b565b610509565b60405161019091906119f9565b60405180910390f35b6101b360048036038101906101ae9190611a40565b61054f565b005b6101cf60048036038101906101ca9190611a80565b610667565b005b6101eb60048036038101906101e69190611a80565b6106c7565b005b6102076004803603810190610202919061198b565b6106e7565b60405161021491906119f9565b60405180910390f35b61023760048036038101906102329190611ad3565b610799565b6040516102449190611b0f565b60405180910390f35b610255610851565b005b61025f610865565b60405161026c9190611933565b60405180910390f35b61028f600480360381019061028a919061198b565b61089e565b60405161029c9190611933565b60405180910390f35b6102ad6108dd565b6040516102ba91906119f9565b60405180910390f35b6102cb610907565b6040516102d89190611933565b60405180910390f35b6102fb60048036038101906102f69190611b56565b610999565b005b61031760048036038101906103129190611ccb565b6109af565b005b610333600480360381019061032e919061198b565b610a11565b6040516103409190611933565b60405180910390f35b610363600480360381019061035e9190611d4e565b610b24565b604051610370919061187f565b60405180910390f35b610393600480360381019061038e9190611ad3565b610bb8565b005b60007f80ac58cd000000000000000000000000000000000000000000000000000000007bffffffffffffffffffffffffffffffffffffffffffffffffffffffff1916827bffffffffffffffffffffffffffffffffffffffffffffffffffffffff1916148061046057507f5b5e139f000000000000000000000000000000000000000000000000000000007bffffffffffffffffffffffffffffffffffffffffffffffffffffffff1916827bffffffffffffffffffffffffffffffffffffffffffffffffffffffff1916145b80610470575061046f82610c5f565b5b9050919050565b60606000805461048690611dbd565b80601f01602080910402602001604051908101604052809291908181526020018280546104b290611dbd565b80156104ff5780601f106104d4576101008083540402835291602001916104ff565b820191906000526020600020905b8154815290600101906020018083116104e257829003601f168201915b5050505050905090565b600061051482610cc9565b6004600083815260200190815260200160002060009054906101000a900473ffffffffffffffffffffffffffffffffffffffff169050919050565b600061055a826106e7565b90508073ffffffffffffffffffffffffffffffffffffffff168373ffffffffffffffffffffffffffffffffffffffff1614156105cb576040517f08c379a00000000000000000000000000000000000000000000000000000000081526004016105c290611e61565b60405180910390fd5b8073ffffffffffffffffffffffffffffffffffffffff166105ea610d14565b73ffffffffffffffffffffffffffffffffffffffff161480610619575061061881610613610d14565b610b24565b5b610658576040517f08c379a000000000000000000000000000000000000000000000000000000000815260040161064f90611ef3565b60405180910390fd5b6106628383610d1c565b505050565b610678610672610d14565b82610dd5565b6106b7576040517f08c379a00000000000000000000000000000000000000000000000000000000081526004016106ae90611f85565b60405180910390fd5b6106c2838383610e6a565b505050565b6106e2838383604051806020016040528060008152506109af565b505050565b6000806002600084815260200190815260200160002060009054906101000a900473ffffffffffffffffffffffffffffffffffffffff169050600073ffffffffffffffffffffffffffffffffffffffff168173ffffffffffffffffffffffffffffffffffffffff161415610790576040517f08c379a000000000000000000000000000000000000000000000000000000000815260040161078790611ff1565b60405180910390fd5b80915050919050565b60008073ffffffffffffffffffffffffffffffffffffffff168273ffffffffffffffffffffffffffffffffffffffff16141561080a576040517f08c379a000000000000000000000000000000000000000000000000000000000815260040161080190612083565b60405180910390fd5b600360008373ffffffffffffffffffffffffffffffffffffffff1673ffffffffffffffffffffffffffffffffffffffff168152602001908152602001600020549050919050565b6108596110d1565b610863600061114f565b565b6040518060400160405280600a81526020017f2e2f6e66742e6a736f6e0000000000000000000000000000000000000000000081525081565b60606040518060400160405280600a81526020017f2e2f6e66742e6a736f6e000000000000000000000000000000000000000000008152509050919050565b6000600760009054906101000a900473ffffffffffffffffffffffffffffffffffffffff16905090565b60606001805461091690611dbd565b80601f016020809104026020016040519081016040528092919081815260200182805461094290611dbd565b801561098f5780601f106109645761010080835404028352916020019161098f565b820191906000526020600020905b81548152906001019060200180831161097257829003601f168201915b5050505050905090565b6109ab6109a4610d14565b8383611215565b5050565b6109c06109ba610d14565b83610dd5565b6109ff576040517f08c379a00000000000000000000000000000000000000000000000000000000081526004016109f690611f85565b60405180910390fd5b610a0b84848484611382565b50505050565b6060610a1c82610cc9565b6000600660008481526020019081526020016000208054610a3c90611dbd565b80601f0160208091040260200160405190810160405280929190818152602001828054610a6890611dbd565b8015610ab55780601f10610a8a57610100808354040283529160200191610ab5565b820191906000526020600020905b815481529060010190602001808311610a9857829003601f168201915b505050505090506000610ac66113de565b9050600081511415610adc578192505050610b1f565b600082511115610b11578082604051602001610af99291906120df565b60405160208183030381529060405292505050610b1f565b610b1a846113f5565b925050505b919050565b6000600560008473ffffffffffffffffffffffffffffffffffffffff1673ffffffffffffffffffffffffffffffffffffffff16815260200190815260200160002060008373ffffffffffffffffffffffffffffffffffffffff1673ffffffffffffffffffffffffffffffffffffffff16815260200190815260200160002060009054906101000a900460ff16905092915050565b610bc06110d1565b600073ffffffffffffffffffffffffffffffffffffffff168173ffffffffffffffffffffffffffffffffffffffff161415610c30576040517f08c379a0000000000000000000000000000000000000000000000000000000008152600401610c2790612175565b60405180910390fd5b610c398161114f565b50565b6000808273ffffffffffffffffffffffffffffffffffffffff163b119050919050565b60007f01ffc9a7000000000000000000000000000000000000000000000000000000007bffffffffffffffffffffffffffffffffffffffffffffffffffffffff1916827bffffffffffffffffffffffffffffffffffffffffffffffffffffffff1916149050919050565b610cd28161145d565b610d11576040517f08c379a0000000000000000000000000000000000000000000000000000000008152600401610d0890611ff1565b60405180910390fd5b50565b600033905090565b816004600083815260200190815260200160002060006101000a81548173ffffffffffffffffffffffffffffffffffffffff021916908373ffffffffffffffffffffffffffffffffffffffff160217905550808273ffffffffffffffffffffffffffffffffffffffff16610d8f836106e7565b73ffffffffffffffffffffffffffffffffffffffff167f8c5be1e5ebec7d5bd14f71427d1e84f3dd0314c0f7b2291e5b200ac8c7c3b92560405160405180910390a45050565b600080610de1836106e7565b90508073ffffffffffffffffffffffffffffffffffffffff168473ffffffffffffffffffffffffffffffffffffffff161480610e235750610e228185610b24565b5b80610e6157508373ffffffffffffffffffffffffffffffffffffffff16610e4984610509565b73ffffffffffffffffffffffffffffffffffffffff16145b91505092915050565b8273ffffffffffffffffffffffffffffffffffffffff16610e8a826106e7565b73ffffffffffffffffffffffffffffffffffffffff1614610ee0576040517f08c379a0000000000000000000000000000000000000000000000000000000008152600401610ed790612207565b60405180910390fd5b600073ffffffffffffffffffffffffffffffffffffffff168273ffffffffffffffffffffffffffffffffffffffff161415610f50576040517f08c379a0000000000000000000000000000000000000000000000000000000008152600401610f4790612299565b60405180910390fd5b610f5b8383836114c9565b610f66600082610d1c565b6001600360008573ffffffffffffffffffffffffffffffffffffffff1673ffffffffffffffffffffffffffffffffffffffff1681526020019081526020016000206000828254610fb691906122e8565b925050819055506001600360008473ffffffffffffffffffffffffffffffffffffffff1673ffffffffffffffffffffffffffffffffffffffff168152602001908152602001600020600082825461100d919061231c565b92505081905550816002600083815260200190815260200160002060006101000a81548173ffffffffffffffffffffffffffffffffffffffff021916908373ffffffffffffffffffffffffffffffffffffffff160217905550808273ffffffffffffffffffffffffffffffffffffffff168473ffffffffffffffffffffffffffffffffffffffff167fddf252ad1be2c89b69c2b068fc378daa952ba7f163c4a11628f55a4df523b3ef60405160405180910390a46110cc8383836114ce565b505050565b6110d9610d14565b73ffffffffffffffffffffffffffffffffffffffff166110f76108dd565b73ffffffffffffffffffffffffffffffffffffffff161461114d576040517f08c379a0000000000000000000000000000000000000000000000000000000008152600401611144906123be565b60405180910390fd5b565b6000600760009054906101000a900473ffffffffffffffffffffffffffffffffffffffff16905081600760006101000a81548173ffffffffffffffffffffffffffffffffffffffff021916908373ffffffffffffffffffffffffffffffffffffffff1602179055508173ffffffffffffffffffffffffffffffffffffffff168173ffffffffffffffffffffffffffffffffffffffff167f8be0079c531659141344cd1fd0a4f28419497f9722a3daafe3b4186f6b6457e060405160405180910390a35050565b8173ffffffffffffffffffffffffffffffffffffffff168373ffffffffffffffffffffffffffffffffffffffff161415611284576040517f08c379a000000000000000000000000000000000000000000000000000000000815260040161127b9061242a565b60405180910390fd5b80600560008573ffffffffffffffffffffffffffffffffffffffff1673ffffffffffffffffffffffffffffffffffffffff16815260200190815260200160002060008473ffffffffffffffffffffffffffffffffffffffff1673ffffffffffffffffffffffffffffffffffffffff16815260200190815260200160002060006101000a81548160ff0219169083151502179055508173ffffffffffffffffffffffffffffffffffffffff168373ffffffffffffffffffffffffffffffffffffffff167f17307eab39ab6107e8899845ad3d59bd9653f200f220920489ca2b5937696c3183604051611375919061187f565b60405180910390a3505050565b61138d848484610e6a565b611399848484846114d3565b6113d8576040517f08c379a00000000000000000000000000000000000000000000000000000000081526004016113cf906124bc565b60405180910390fd5b50505050565b606060405180602001604052806000815250905090565b606061140082610cc9565b600061140a6113de565b9050600081511161142a5760405180602001604052806000815250611455565b806114348461166a565b6040516020016114459291906120df565b6040516020818303038152906040525b915050919050565b60008073ffffffffffffffffffffffffffffffffffffffff166002600084815260200190815260200160002060009054906101000a900473ffffffffffffffffffffffffffffffffffffffff1673ffffffffffffffffffffffffffffffffffffffff1614159050919050565b505050565b505050565b60006114f48473ffffffffffffffffffffffffffffffffffffffff16610c3c565b1561165d578373ffffffffffffffffffffffffffffffffffffffff1663150b7a0261151d610d14565b8786866040518563ffffffff1660e01b815260040161153f9493929190612531565b602060405180830381600087803b15801561155957600080fd5b505af192505050801561158a57506040513d601f19601f820116820180604052508101906115879190612592565b60015b61160d573d80600081146115ba576040519150601f19603f3d011682016040523d82523d6000602084013e6115bf565b606091505b50600081511415611605576040517f08c379a00000000000000000000000000000000000000000000000000000000081526004016115fc906124bc565b60405180910390fd5b805181602001fd5b63150b7a0260e01b7bffffffffffffffffffffffffffffffffffffffffffffffffffffffff1916817bffffffffffffffffffffffffffffffffffffffffffffffffffffffff191614915050611662565b600190505b949350505050565b606060008214156116b2576040518060400160405280600181526020017f300000000000000000000000000000000000000000000000000000000000000081525090506117c6565b600082905060005b600082146116e45780806116cd906125bf565b915050600a826116dd9190612637565b91506116ba565b60008167ffffffffffffffff811115611700576116ff611ba0565b5b6040519080825280601f01601f1916602001820160405280156117325781602001600182028036833780820191505090505b5090505b600085146117bf5760018261174b91906122e8565b9150600a8561175a9190612668565b6030611766919061231c565b60f81b81838151811061177c5761177b612699565b5b60200101907effffffffffffffffffffffffffffffffffffffffffffffffffffffffffffff1916908160001a905350600a856117b89190612637565b9450611736565b8093505050505b919050565b6000604051905090565b600080fd5b600080fd5b60007fffffffff0000000000000000000000000000000000000000000000000000000082169050919050565b611814816117df565b811461181f57600080fd5b50565b6000813590506118318161180b565b92915050565b60006020828403121561184d5761184c6117d5565b5b600061185b84828501611822565b91505092915050565b60008115159050919050565b61187981611864565b82525050565b60006020820190506118946000830184611870565b92915050565b600081519050919050565b600082825260208201905092915050565b60005b838110156118d45780820151818401526020810190506118b9565b838111156118e3576000848401525b50505050565b6000601f19601f8301169050919050565b60006119058261189a565b61190f81856118a5565b935061191f8185602086016118b6565b611928816118e9565b840191505092915050565b6000602082019050818103600083015261194d81846118fa565b905092915050565b6000819050919050565b61196881611955565b811461197357600080fd5b50565b6000813590506119858161195f565b92915050565b6000602082840312156119a1576119a06117d5565b5b60006119af84828501611976565b91505092915050565b600073ffffffffffffffffffffffffffffffffffffffff82169050919050565b60006119e3826119b8565b9050919050565b6119f3816119d8565b82525050565b6000602082019050611a0e60008301846119ea565b92915050565b611a1d816119d8565b8114611a2857600080fd5b50565b600081359050611a3a81611a14565b92915050565b60008060408385031215611a5757611a566117d5565b5b6000611a6585828601611a2b565b9250506020611a7685828601611976565b9150509250929050565b600080600060608486031215611a9957611a986117d5565b5b6000611aa786828701611a2b565b9350506020611ab886828701611a2b565b9250506040611ac986828701611976565b9150509250925092565b600060208284031215611ae957611ae86117d5565b5b6000611af784828501611a2b565b91505092915050565b611b0981611955565b82525050565b6000602082019050611b246000830184611b00565b92915050565b611b3381611864565b8114611b3e57600080fd5b50565b600081359050611b5081611b2a565b92915050565b60008060408385031215611b6d57611b6c6117d5565b5b6000611b7b85828601611a2b565b9250506020611b8c85828601611b41565b9150509250929050565b600080fd5b600080fd5b7f4e487b7100000000000000000000000000000000000000000000000000000000600052604160045260246000fd5b611bd8826118e9565b810181811067ffffffffffffffff82111715611bf757611bf6611ba0565b5b80604052505050565b6000611c0a6117cb565b9050611c168282611bcf565b919050565b600067ffffffffffffffff821115611c3657611c35611ba0565b5b611c3f826118e9565b9050602081019050919050565b82818337600083830152505050565b6000611c6e611c6984611c1b565b611c00565b905082815260208101848484011115611c8a57611c89611b9b565b5b611c95848285611c4c565b509392505050565b600082601f830112611cb257611cb1611b96565b5b8135611cc2848260208601611c5b565b91505092915050565b60008060008060808587031215611ce557611ce46117d5565b5b6000611cf387828801611a2b565b9450506020611d0487828801611a2b565b9350506040611d1587828801611976565b925050606085013567ffffffffffffffff811115611d3657611d356117da565b5b611d4287828801611c9d565b91505092959194509250565b60008060408385031215611d6557611d646117d5565b5b6000611d7385828601611a2b565b9250506020611d8485828601611a2b565b9150509250929050565b7f4e487b7100000000000000000000000000000000000000000000000000000000600052602260045260246000fd5b60006002820490506001821680611dd557607f821691505b60208210811415611de957611de8611d8e565b5b50919050565b7f4552433732313a20617070726f76616c20746f2063757272656e74206f776e6560008201527f7200000000000000000000000000000000000000000000000000000000000000602082015250565b6000611e4b6021836118a5565b9150611e5682611def565b604082019050919050565b60006020820190508181036000830152611e7a81611e3e565b9050919050565b7f4552433732313a20617070726f76652063616c6c6572206973206e6f7420746f60008201527f6b656e206f776e6572206e6f7220617070726f76656420666f7220616c6c0000602082015250565b6000611edd603e836118a5565b9150611ee882611e81565b604082019050919050565b60006020820190508181036000830152611f0c81611ed0565b9050919050565b7f4552433732313a2063616c6c6572206973206e6f7420746f6b656e206f776e6560008201527f72206e6f7220617070726f766564000000000000000000000000000000000000602082015250565b6000611f6f602e836118a5565b9150611f7a82611f13565b604082019050919050565b60006020820190508181036000830152611f9e81611f62565b9050919050565b7f4552433732313a20696e76616c696420746f6b656e2049440000000000000000600082015250565b6000611fdb6018836118a5565b9150611fe682611fa5565b602082019050919050565b6000602082019050818103600083015261200a81611fce565b9050919050565b7f4552433732313a2061646472657373207a65726f206973206e6f74206120766160008201527f6c6964206f776e65720000000000000000000000000000000000000000000000602082015250565b600061206d6029836118a5565b915061207882612011565b604082019050919050565b6000602082019050818103600083015261209c81612060565b9050919050565b600081905092915050565b60006120b98261189a565b6120c381856120a3565b93506120d38185602086016118b6565b80840191505092915050565b60006120eb82856120ae565b91506120f782846120ae565b91508190509392505050565b7f4f776e61626c653a206e6577206f776e657220697320746865207a65726f206160008201527f6464726573730000000000000000000000000000000000000000000000000000602082015250565b600061215f6026836118a5565b915061216a82612103565b604082019050919050565b6000602082019050818103600083015261218e81612152565b9050919050565b7f4552433732313a207472616e736665722066726f6d20696e636f72726563742060008201527f6f776e6572000000000000000000000000000000000000000000000000000000602082015250565b60006121f16025836118a5565b91506121fc82612195565b604082019050919050565b60006020820190508181036000830152612220816121e4565b9050919050565b7f4552433732313a207472616e7366657220746f20746865207a65726f2061646460008201527f7265737300000000000000000000000000000000000000000000000000000000602082015250565b60006122836024836118a5565b915061228e82612227565b604082019050919050565b600060208201905081810360008301526122b281612276565b9050919050565b7f4e487b7100000000000000000000000000000000000000000000000000000000600052601160045260246000fd5b60006122f382611955565b91506122fe83611955565b925082821015612311576123106122b9565b5b828203905092915050565b600061232782611955565b915061233283611955565b9250827fffffffffffffffffffffffffffffffffffffffffffffffffffffffffffffffff03821115612367576123666122b9565b5b828201905092915050565b7f4f776e61626c653a2063616c6c6572206973206e6f7420746865206f776e6572600082015250565b60006123a86020836118a5565b91506123b382612372565b602082019050919050565b600060208201905081810360008301526123d78161239b565b9050919050565b7f4552433732313a20617070726f766520746f2063616c6c657200000000000000600082015250565b60006124146019836118a5565b915061241f826123de565b602082019050919050565b6000602082019050818103600083015261244381612407565b9050919050565b7f4552433732313a207472616e7366657220746f206e6f6e20455243373231526560008201527f63656976657220696d706c656d656e7465720000000000000000000000000000602082015250565b60006124a66032836118a5565b91506124b18261244a565b604082019050919050565b600060208201905081810360008301526124d581612499565b9050919050565b600081519050919050565b600082825260208201905092915050565b6000612503826124dc565b61250d81856124e7565b935061251d8185602086016118b6565b612526816118e9565b840191505092915050565b600060808201905061254660008301876119ea565b61255360208301866119ea565b6125606040830185611b00565b818103606083015261257281846124f8565b905095945050505050565b60008151905061258c8161180b565b92915050565b6000602082840312156125a8576125a76117d5565b5b60006125b68482850161257d565b91505092915050565b60006125ca82611955565b91507fffffffffffffffffffffffffffffffffffffffffffffffffffffffffffffffff8214156125fd576125fc6122b9565b5b600182019050919050565b7f4e487b7100000000000000000000000000000000000000000000000000000000600052601260045260246000fd5b600061264282611955565b915061264d83611955565b92508261265d5761265c612608565b5b828204905092915050565b600061267382611955565b915061267e83611955565b92508261268e5761268d612608565b5b828206905092915050565b7f4e487b7100000000000000000000000000000000000000000000000000000000600052603260045260246000fdfea2646970667358221220a63d09a172bc7ce798fefd3531ec8b1c13266b92de11884a7ab137d3d53f456664736f6c63430008080033",
  "linkReferences": {},
  "deployedLinkReferences": {}
}