{
  "_format": "hh-sol-artifact-1",
  "contractName": "Auction",
  "sourceName": "contracts/Auction.sol",
  "abi": [
    {
      "inputs": [
        {
          "internalType": "address",
          "name": "_nftAddress",
          "type": "address"
        },
        {
          "internalType": "address",
          "name": "_eureAddress",
          "type": "address"
        },
        {
          "internalType": "address",
          "name": "_ethAddress",
          "type": "address"
        }
      ],
      "stateMutability": "nonpayable",
      "type": "constructor"
    },
    {
      "inputs": [],
      "name": "AuctionClosed",
      "type": "error"
    },
    {
      "inputs": [],
      "name": "NftNotForSale",
      "type": "error"
    },
    {
      "inputs": [],
      "name": "NotEnoughBalance",
      "type": "error"
    },
    {
      "inputs": [],
      "name": "UpkeepNotNeeded",
      "type": "error"
    },
    {
      "anonymous": false,
      "inputs": [
        {
          "indexed": true,
          "internalType": "address",
          "name": "previousOwner",
          "type": "address"
        },
        {
          "indexed": true,
          "internalType": "address",
          "name": "newOwner",
          "type": "address"
        }
      ],
      "name": "OwnershipTransferred",
      "type": "event"
    },
    {
      "inputs": [
        {
          "internalType": "uint256",
          "name": "_nftId",
          "type": "uint256"
        },
        {
          "internalType": "address",
          "name": "_token",
          "type": "address"
        }
      ],
      "name": "buyNft",
      "outputs": [],
      "stateMutability": "nonpayable",
      "type": "function"
    },
    {
      "inputs": [
        {
          "internalType": "bytes",
          "name": "",
          "type": "bytes"
        }
      ],
      "name": "checkUpkeep",
      "outputs": [
        {
          "internalType": "bool",
          "name": "upkeepNeeded",
          "type": "bool"
        },
        {
          "internalType": "bytes",
          "name": "",
          "type": "bytes"
        }
      ],
      "stateMutability": "nonpayable",
      "type": "function"
    },
    {
      "inputs": [],
      "name": "closeAuction",
      "outputs": [],
      "stateMutability": "nonpayable",
      "type": "function"
    },
    {
      "inputs": [
        {
          "internalType": "uint256",
          "name": "_fromId",
          "type": "uint256"
        },
        {
          "internalType": "uint256",
          "name": "_toId",
          "type": "uint256"
        },
        {
          "internalType": "uint256",
          "name": "_newPrice",
          "type": "uint256"
        },
        {
          "internalType": "uint256",
          "name": "_auctionDuration",
          "type": "uint256"
        }
      ],
      "name": "newAuction",
      "outputs": [],
      "stateMutability": "nonpayable",
      "type": "function"
    },
    {
      "inputs": [],
      "name": "openAuction",
      "outputs": [],
      "stateMutability": "nonpayable",
      "type": "function"
    },
    {
      "inputs": [],
      "name": "owner",
      "outputs": [
        {
          "internalType": "address",
          "name": "",
          "type": "address"
        }
      ],
      "stateMutability": "view",
      "type": "function"
    },
    {
      "inputs": [
        {
          "internalType": "bytes",
          "name": "",
          "type": "bytes"
        }
      ],
      "name": "performUpkeep",
      "outputs": [],
      "stateMutability": "nonpayable",
      "type": "function"
    },
    {
      "inputs": [
        {
          "internalType": "uint256",
          "name": "_shareId",
          "type": "uint256"
        },
        {
          "internalType": "uint256",
          "name": "_price",
          "type": "uint256"
        }
      ],
      "name": "placeBid",
      "outputs": [],
      "stateMutability": "nonpayable",
      "type": "function"
    },
    {
      "inputs": [],
      "name": "renounceOwnership",
      "outputs": [],
      "stateMutability": "nonpayable",
      "type": "function"
    },
    {
      "inputs": [
        {
          "internalType": "address",
          "name": "newOwner",
          "type": "address"
        }
      ],
      "name": "transferOwnership",
      "outputs": [],
      "stateMutability": "nonpayable",
      "type": "function"
    }
  ],
  "bytecode": "0x60e06040523480156200001157600080fd5b50604051620015d3380380620015d3833981810160405281019062000037919062000283565b620000576200004b6200014d60201b60201c565b6200015560201b60201c565b8273ffffffffffffffffffffffffffffffffffffffff1660c08173ffffffffffffffffffffffffffffffffffffffff1660601b815250508173ffffffffffffffffffffffffffffffffffffffff1660808173ffffffffffffffffffffffffffffffffffffffff1660601b815250508073ffffffffffffffffffffffffffffffffffffffff1660a08173ffffffffffffffffffffffffffffffffffffffff1660601b8152505033600160006101000a81548173ffffffffffffffffffffffffffffffffffffffff021916908373ffffffffffffffffffffffffffffffffffffffff16021790555042600781905550505050620002df565b600033905090565b60008060009054906101000a900473ffffffffffffffffffffffffffffffffffffffff169050816000806101000a81548173ffffffffffffffffffffffffffffffffffffffff021916908373ffffffffffffffffffffffffffffffffffffffff1602179055508173ffffffffffffffffffffffffffffffffffffffff168173ffffffffffffffffffffffffffffffffffffffff167f8be0079c531659141344cd1fd0a4f28419497f9722a3daafe3b4186f6b6457e060405160405180910390a35050565b600080fd5b600073ffffffffffffffffffffffffffffffffffffffff82169050919050565b60006200024b826200021e565b9050919050565b6200025d816200023e565b81146200026957600080fd5b50565b6000815190506200027d8162000252565b92915050565b6000806000606084860312156200029f576200029e62000219565b5b6000620002af868287016200026c565b9350506020620002c2868287016200026c565b9250506040620002d5868287016200026c565b9150509250925092565b60805160601c60a05160601c60c05160601c6112ba6200031960003960008181610561015261065e015260005050600050506112ba6000f3fe608060405234801561001057600080fd5b506004361061009e5760003560e01c8063715018a611610066578063715018a6146101205780638da5cb5b1461012a578063bc3ad14514610148578063d45eb1b214610164578063f2fde38b146101805761009e565b806304cb72f9146100a3578063378252f2146100ad5780634585e33b146100b757806357c90de5146100d35780636e04ff0d146100ef575b600080fd5b6100ab61019c565b005b6100b561023c565b005b6100d160048036038101906100cc91906109cf565b6102de565b005b6100ed60048036038101906100e89190610a52565b610361565b005b61010960048036038101906101049190610bd3565b610365565b604051610117929190610cbf565b60405180910390f35b610128610381565b005b610132610395565b60405161013f9190610d30565b60405180910390f35b610162600480360381019061015d9190610d77565b6103be565b005b61017e60048036038101906101799190610db7565b610614565b005b61019a60048036038101906101959190610e1e565b61072b565b005b6101a46107af565b6001808111156101b7576101b6610e4b565b5b600060149054906101000a900460ff1660018111156101d9576101d8610e4b565b5b14610210576040517f36b6b46d00000000000000000000000000000000000000000000000000000000815260040160405180910390fd5b60008060146101000a81548160ff0219169083600181111561023557610234610e4b565b5b0217905550565b6102446107af565b6000600181111561025857610257610e4b565b5b600060149054906101000a900460ff16600181111561027a57610279610e4b565b5b146102b1576040517f36b6b46d00000000000000000000000000000000000000000000000000000000815260040160405180910390fd5b6001600060146101000a81548160ff021916908360018111156102d7576102d6610e4b565b5b0217905550565b60006102f860405180602001604052806000815250610365565b50905080610332576040517f865676e300000000000000000000000000000000000000000000000000000000815260040160405180910390fd5b6127106103e76004546103459190610ea9565b61034f9190610f32565b60058190555042600781905550505050565b5050565b60006060603c600754426103799190610f63565b119150915091565b6103896107af565b610393600061082d565b565b60008060009054906101000a900473ffffffffffffffffffffffffffffffffffffffff16905090565b600060018111156103d2576103d1610e4b565b5b600060149054906101000a900460ff1660018111156103f4576103f3610e4b565b5b1461042b576040517f36b6b46d00000000000000000000000000000000000000000000000000000000815260040160405180910390fd5b60026000600281106104405761043f610f97565b5b01548210806104645750600260016002811061045f5761045e610f97565b5b015482115b1561049b576040517f215f899f00000000000000000000000000000000000000000000000000000000815260040160405180910390fd5b6005548173ffffffffffffffffffffffffffffffffffffffff166370a08231336040518263ffffffff1660e01b81526004016104d79190610d30565b60206040518083038186803b1580156104ef57600080fd5b505afa158015610503573d6000803e3d6000fd5b505050506040513d601f19601f820116820180604052508101906105279190610fdb565b101561055f576040517fad3a8b9e00000000000000000000000000000000000000000000000000000000815260040160405180910390fd5b7f000000000000000000000000000000000000000000000000000000000000000073ffffffffffffffffffffffffffffffffffffffff166342842e0e600160009054906101000a900473ffffffffffffffffffffffffffffffffffffffff1633856040518463ffffffff1660e01b81526004016105de93929190611076565b600060405180830381600087803b1580156105f857600080fd5b505af115801561060c573d6000803e3d6000fd5b505050505050565b61061c6107af565b60405180604001604052808581526020018481525060029060026106419291906108f9565b5060008490505b60018461065591906110ad565b8110156106fc577f000000000000000000000000000000000000000000000000000000000000000073ffffffffffffffffffffffffffffffffffffffff1663095ea7b330836040518363ffffffff1660e01b81526004016106b7929190611103565b600060405180830381600087803b1580156106d157600080fd5b505af11580156106e5573d6000803e3d6000fd5b5050505080806106f49061112c565b915050610648565b508160048190555081600581905550804261071791906110ad565b60068190555061072561019c565b50505050565b6107336107af565b600073ffffffffffffffffffffffffffffffffffffffff168173ffffffffffffffffffffffffffffffffffffffff1614156107a3576040517f08c379a000000000000000000000000000000000000000000000000000000000815260040161079a906111f8565b60405180910390fd5b6107ac8161082d565b50565b6107b76108f1565b73ffffffffffffffffffffffffffffffffffffffff166107d5610395565b73ffffffffffffffffffffffffffffffffffffffff161461082b576040517f08c379a000000000000000000000000000000000000000000000000000000000815260040161082290611264565b60405180910390fd5b565b60008060009054906101000a900473ffffffffffffffffffffffffffffffffffffffff169050816000806101000a81548173ffffffffffffffffffffffffffffffffffffffff021916908373ffffffffffffffffffffffffffffffffffffffff1602179055508173ffffffffffffffffffffffffffffffffffffffff168173ffffffffffffffffffffffffffffffffffffffff167f8be0079c531659141344cd1fd0a4f28419497f9722a3daafe3b4186f6b6457e060405160405180910390a35050565b600033905090565b8260028101928215610928579160200282015b8281111561092757825182559160200191906001019061090c565b5b5090506109359190610939565b5090565b5b8082111561095257600081600090555060010161093a565b5090565b6000604051905090565b600080fd5b600080fd5b600080fd5b600080fd5b600080fd5b60008083601f84011261098f5761098e61096a565b5b8235905067ffffffffffffffff8111156109ac576109ab61096f565b5b6020830191508360018202830111156109c8576109c7610974565b5b9250929050565b600080602083850312156109e6576109e5610960565b5b600083013567ffffffffffffffff811115610a0457610a03610965565b5b610a1085828601610979565b92509250509250929050565b6000819050919050565b610a2f81610a1c565b8114610a3a57600080fd5b50565b600081359050610a4c81610a26565b92915050565b60008060408385031215610a6957610a68610960565b5b6000610a7785828601610a3d565b9250506020610a8885828601610a3d565b9150509250929050565b600080fd5b6000601f19601f8301169050919050565b7f4e487b7100000000000000000000000000000000000000000000000000000000600052604160045260246000fd5b610ae082610a97565b810181811067ffffffffffffffff82111715610aff57610afe610aa8565b5b80604052505050565b6000610b12610956565b9050610b1e8282610ad7565b919050565b600067ffffffffffffffff821115610b3e57610b3d610aa8565b5b610b4782610a97565b9050602081019050919050565b82818337600083830152505050565b6000610b76610b7184610b23565b610b08565b905082815260208101848484011115610b9257610b91610a92565b5b610b9d848285610b54565b509392505050565b600082601f830112610bba57610bb961096a565b5b8135610bca848260208601610b63565b91505092915050565b600060208284031215610be957610be8610960565b5b600082013567ffffffffffffffff811115610c0757610c06610965565b5b610c1384828501610ba5565b91505092915050565b60008115159050919050565b610c3181610c1c565b82525050565b600081519050919050565b600082825260208201905092915050565b60005b83811015610c71578082015181840152602081019050610c56565b83811115610c80576000848401525b50505050565b6000610c9182610c37565b610c9b8185610c42565b9350610cab818560208601610c53565b610cb481610a97565b840191505092915050565b6000604082019050610cd46000830185610c28565b8181036020830152610ce68184610c86565b90509392505050565b600073ffffffffffffffffffffffffffffffffffffffff82169050919050565b6000610d1a82610cef565b9050919050565b610d2a81610d0f565b82525050565b6000602082019050610d456000830184610d21565b92915050565b610d5481610d0f565b8114610d5f57600080fd5b50565b600081359050610d7181610d4b565b92915050565b60008060408385031215610d8e57610d8d610960565b5b6000610d9c85828601610a3d565b9250506020610dad85828601610d62565b9150509250929050565b60008060008060808587031215610dd157610dd0610960565b5b6000610ddf87828801610a3d565b9450506020610df087828801610a3d565b9350506040610e0187828801610a3d565b9250506060610e1287828801610a3d565b91505092959194509250565b600060208284031215610e3457610e33610960565b5b6000610e4284828501610d62565b91505092915050565b7f4e487b7100000000000000000000000000000000000000000000000000000000600052602160045260246000fd5b7f4e487b7100000000000000000000000000000000000000000000000000000000600052601160045260246000fd5b6000610eb482610a1c565b9150610ebf83610a1c565b9250817fffffffffffffffffffffffffffffffffffffffffffffffffffffffffffffffff0483118215151615610ef857610ef7610e7a565b5b828202905092915050565b7f4e487b7100000000000000000000000000000000000000000000000000000000600052601260045260246000fd5b6000610f3d82610a1c565b9150610f4883610a1c565b925082610f5857610f57610f03565b5b828204905092915050565b6000610f6e82610a1c565b9150610f7983610a1c565b925082821015610f8c57610f8b610e7a565b5b828203905092915050565b7f4e487b7100000000000000000000000000000000000000000000000000000000600052603260045260246000fd5b600081519050610fd581610a26565b92915050565b600060208284031215610ff157610ff0610960565b5b6000610fff84828501610fc6565b91505092915050565b6000819050919050565b600061102d61102861102384610cef565b611008565b610cef565b9050919050565b600061103f82611012565b9050919050565b600061105182611034565b9050919050565b61106181611046565b82525050565b61107081610a1c565b82525050565b600060608201905061108b6000830186611058565b6110986020830185610d21565b6110a56040830184611067565b949350505050565b60006110b882610a1c565b91506110c383610a1c565b9250827fffffffffffffffffffffffffffffffffffffffffffffffffffffffffffffffff038211156110f8576110f7610e7a565b5b828201905092915050565b60006040820190506111186000830185610d21565b6111256020830184611067565b9392505050565b600061113782610a1c565b91507fffffffffffffffffffffffffffffffffffffffffffffffffffffffffffffffff82141561116a57611169610e7a565b5b600182019050919050565b600082825260208201905092915050565b7f4f776e61626c653a206e6577206f776e657220697320746865207a65726f206160008201527f6464726573730000000000000000000000000000000000000000000000000000602082015250565b60006111e2602683611175565b91506111ed82611186565b604082019050919050565b60006020820190508181036000830152611211816111d5565b9050919050565b7f4f776e61626c653a2063616c6c6572206973206e6f7420746865206f776e6572600082015250565b600061124e602083611175565b915061125982611218565b602082019050919050565b6000602082019050818103600083015261127d81611241565b905091905056fea2646970667358221220a2546d9d30aae5da47be80cb9e3651284f9a7524b77d881def9d84feebc5086264736f6c63430008080033",
  "linkReferences": {},
  "deployedLinkReferences": {}
}